Microchip MPLAB XC8 Compiler V1.30 ()

Linker command line:

--edf=C:\Program Files (x86)\Microchip\xc8\v1.30\dat\en_msgs.txt -cs \
  -h+dist/default/production\ccp-motor-half-bridge.production.sym \
  --cmf=dist/default/production\ccp-motor-half-bridge.production.cmf -z \
  -Q16F887 -oC:\Users\Erick\AppData\Local\Temp\s7is.6 \
  -Mdist/default/production/ccp-motor-half-bridge.production.map -E1 \
  -ver=XC8 -ASTACK=0110h-016fh -pstack=STACK -ACONST=00h-0FFhx32 \
  -ACODE=00h-07FFhx4 -ASTRCODE=00h-01FFFh -AENTRY=00h-0FFhx32 \
  -ASTRING=00h-0FFhx32 -ACOMMON=070h-07Fh -ABANK0=020h-06Fh \
  -ABANK1=0A0h-0EFh -ABANK2=0110h-016Fh -ABANK3=0190h-01EFh \
  -ARAM=020h-06Fh,0A0h-0EFh,0110h-016Fh,0190h-01EFh \
  -AABS1=020h-07Fh,0A0h-0EFh,0110h-016Fh,0190h-01EFh -ASFR0=00h-01Fh \
  -ASFR1=080h-09Fh -ASFR2=0100h-010Fh -ASFR3=0180h-018Fh \
  -preset_vec=00h,intentry=04h,init,end_init -ppowerup=CODE -pcinit=CODE \
  -pfunctab=CODE -ACONFIG=02007h-02008h -pconfig=CONFIG -DCONFIG=2 \
  -AIDLOC=02000h-02003h -pidloc=IDLOC -DIDLOC=2 -AEEDATA=00h-0FFh/02100h \
  -peeprom_data=EEDATA -DEEDATA=2 -DCODE=2 -DSTRCODE=2 -DSTRING=2 -DCONST=2 \
  -DENTRY=2 -k C:\Users\Erick\AppData\Local\Temp\s7is.obj \
  dist/default/production\ccp-motor-half-bridge.production.obj 

Object code version is 3.11

Machine type is 16F887



                Name                               Link     Load   Length Selector   Space Scale
C:\Users\Erick\AppData\Local\Temp\s7is.obj
                end_init                             12       12        3        8       0
                reset_vec                             0        0        3        0       0
                config                             2007     2007        2     400E       0
dist/default/production\ccp-motor-half-bridge.production.obj
                cinit                                15       15       26        8       0
                intentry                              4        4        E        8       0
                text7_split_1                       869      869      26C     10D2       0
                text34                             1CE5     1CE5       29     39CA       0
                text33                             1F12     1F12       6A     3E24       0
                text32                             1C9B     1C9B       25     3936       0
                text31                             15C4     15C4      109     2B88       0
                text30                             12AF     12AF       B8     255E       0
                text29                             14F1     14F1       D3     29E2       0
                text28                             1C78     1C78       23     38F0       0
                text27                             11FF     11FF       B0     23FE       0
                text26                             1152     1152       AD     22A4       0
                text25                             1D78     1D78       41     3AF0       0
                text24                             108A     108A       3A     2114       0
                text23                             1EB3     1EB3       5F     3D66       0
                text22                             1BE9     1BE9        A     37D2       0
                text21                             1C21     1C21       1C     3842       0
                text20                             10C4     10C4       8E     2188       0
                text19                              809      809       60     1012       0
                text18                             1DB9     1DB9       4E     3B72       0
                text17                             1D0E     1D0E       31     3A1C       0
                text16                             1CC0     1CC0       25     3980       0
                text15                             16CD     16CD      133     2D9A       0
                text14                             1367     1367       C3     26CE       0
                text13                             1E56     1E56       5D     3CAC       0
                text12                             1E07     1E07       4F     3C0E       0
                text11                              7E7      7E7       13        8       0
                text10                              63F      63F      1A8        8       0
                text9                              1BF3     1BF3        E     37E6       0
                text8                               D49      D49      2B7     1A92       0
                text7                                3B       3B      604        8       0
                text6                              1F7C     1F7C       84     3EF8       0
                text5                              1C5A     1C5A       1E     38B4       0
                text4                               AD5      AD5      274     15AA       0
                text3                              142A     142A       C7     2854       0
                text2                              1C3D     1C3D       1D     387A       0
                text1                              1C01     1C01        F     3802       0
                maintext                           1D3F     1D3F       39     3A7E       0
                cstackBANK0                          20       20       4F       20       1
                cstackCOMMON                         70       70        6       70       1
                cstackBANK1                          A0       A0       32       A0       1
                inittext                           1C10     1C10       11     3820       0
                clrtext                            1BE1     1BE1        8     37C2       0
                bssBANK3                            190      190       28      190       1
                dataBANK1                            E4       E4        8       A0       1
                bssBANK1                             D2       D2       12       A0       1
                bssCOMMON                            76       76        4       70       1
                strings                            1000     1000       89     2000       0
                idataBANK1                          801      801        8     1002       0

TOTAL           Name                               Link     Load   Length     Space
        CLASS   STACK          

        CLASS   CONST          

        CLASS   CODE           
                end_init                             12       12        3         0
                cinit                                15       15       26         0
                intentry                              4        4        E         0
                reset_vec                             0        0        3         0
                text7_split_1                       869      869      26C         0
                text34                             1CE5     1CE5       29         0
                text33                             1F12     1F12       6A         0
                text32                             1C9B     1C9B       25         0
                text31                             15C4     15C4      109         0
                text30                             12AF     12AF       B8         0
                text29                             14F1     14F1       D3         0
                text28                             1C78     1C78       23         0
                text27                             11FF     11FF       B0         0
                text26                             1152     1152       AD         0
                text25                             1D78     1D78       41         0
                text24                             108A     108A       3A         0
                text23                             1EB3     1EB3       5F         0
                text22                             1BE9     1BE9        A         0
                text21                             1C21     1C21       1C         0
                text20                             10C4     10C4       8E         0
                text19                              809      809       60         0
                text18                             1DB9     1DB9       4E         0
                text17                             1D0E     1D0E       31         0
                text16                             1CC0     1CC0       25         0
                text15                             16CD     16CD      133         0
                text14                             1367     1367       C3         0
                text13                             1E56     1E56       5D         0
                text12                             1E07     1E07       4F         0
                text11                              7E7      7E7       13         0
                text10                              63F      63F      1A8         0
                text9                              1BF3     1BF3        E         0
                text8                               D49      D49      2B7         0
                text7                                3B       3B      604         0
                text6                              1F7C     1F7C       84         0
                text5                              1C5A     1C5A       1E         0
                text4                               AD5      AD5      274         0
                text3                              142A     142A       C7         0
                text2                              1C3D     1C3D       1D         0
                text1                              1C01     1C01        F         0
                maintext                           1D3F     1D3F       39         0
                inittext                           1C10     1C10       11         0
                clrtext                            1BE1     1BE1        8         0
                idataBANK1                          801      801        8         0

        CLASS   STRCODE        

        CLASS   ENTRY          

        CLASS   STRING         
                strings                            1000     1000       89         0

        CLASS   COMMON         
                cstackCOMMON                         70       70        6         1
                bssCOMMON                            76       76        4         1

        CLASS   BANK0          
                cstackBANK0                          20       20       4F         1

        CLASS   BANK1          
                cstackBANK1                          A0       A0       32         1
                dataBANK1                            E4       E4        8         1
                bssBANK1                             D2       D2       12         1

        CLASS   BANK2          

        CLASS   BANK3          
                bssBANK3                            190      190       28         1

        CLASS   RAM            

        CLASS   ABS1           
                abs_s1                               7E       7E        2         1

        CLASS   SFR0           

        CLASS   SFR1           

        CLASS   SFR2           

        CLASS   SFR3           

        CLASS   CONFIG         
                config                             2007     2007        2         0

        CLASS   IDLOC          

        CLASS   EEDATA         



SEGMENTS        Name                           Load    Length   Top    Selector   Space  Class     Delta

                reset_vec                      000000  000003  000003         0       0  CODE        2
                intentry                       000004  0007F6  0007FA         8       0  CODE        2
                cstackBANK0                    000020  00004F  00006F        20       1  BANK0       1
                cstackCOMMON                   000070  00000A  00007A        70       1  COMMON      1
                cstackBANK1                    0000A0  00004C  0000EC        A0       1  BANK1       1
                bssBANK3                       000190  000028  0001B8       190       1  BANK3       1
                idataBANK1                     000801  000008  000809      1002       0  CODE        2
                text19                         000809  000060  000869      1012       0  CODE        2
                text7_split_1                  000869  00026C  000AD5      10D2       0  CODE        2
                text4                          000AD5  000274  000D49      15AA       0  CODE        2
                text8                          000D49  0002B7  001000      1A92       0  CODE        2
                strings                        001000  000089  001089      2000       0  STRING      2
                text24                         00108A  00003A  0010C4      2114       0  CODE        2
                text20                         0010C4  00008E  001152      2188       0  CODE        2
                text26                         001152  0000AD  0011FF      22A4       0  CODE        2
                text27                         0011FF  0000B0  0012AF      23FE       0  CODE        2
                text30                         0012AF  0000B8  001367      255E       0  CODE        2
                text14                         001367  0000C3  00142A      26CE       0  CODE        2
                text3                          00142A  0000C7  0014F1      2854       0  CODE        2
                text29                         0014F1  0000D3  0015C4      29E2       0  CODE        2
                text31                         0015C4  000109  0016CD      2B88       0  CODE        2
                text15                         0016CD  000133  001800      2D9A       0  CODE        2
                clrtext                        001BE1  000008  001BE9      37C2       0  CODE        2
                text22                         001BE9  00000A  001BF3      37D2       0  CODE        2
                text9                          001BF3  00000E  001C01      37E6       0  CODE        2
                text1                          001C01  00000F  001C10      3802       0  CODE        2
                inittext                       001C10  000011  001C21      3820       0  CODE        2
                text21                         001C21  00001C  001C3D      3842       0  CODE        2
                text2                          001C3D  00001D  001C5A      387A       0  CODE        2
                text5                          001C5A  00001E  001C78      38B4       0  CODE        2
                text28                         001C78  000023  001C9B      38F0       0  CODE        2
                text32                         001C9B  000025  001CC0      3936       0  CODE        2
                text16                         001CC0  000025  001CE5      3980       0  CODE        2
                text34                         001CE5  000029  001D0E      39CA       0  CODE        2
                text17                         001D0E  000031  001D3F      3A1C       0  CODE        2
                maintext                       001D3F  000039  001D78      3A7E       0  CODE        2
                text25                         001D78  000041  001DB9      3AF0       0  CODE        2
                text18                         001DB9  00004E  001E07      3B72       0  CODE        2
                text12                         001E07  00004F  001E56      3C0E       0  CODE        2
                text13                         001E56  00005D  001EB3      3CAC       0  CODE        2
                text23                         001EB3  00005F  001F12      3D66       0  CODE        2
                text33                         001F12  00006A  001F7C      3E24       0  CODE        2
                text6                          001F7C  000084  002000      3EF8       0  CODE        2
                config                         002007  000002  002009      400E       0  CONFIG      2


UNUSED ADDRESS RANGES

        Name                Unused          Largest block    Delta
        BANK0            00006F-00006F                1           1
        BANK1            0000EC-0000EF                4           1
        BANK2            000110-00016F               60           1
        BANK3            0001B8-0001EF               38           1
        CODE             000003-000003                1           2
                         0007FA-000800                6
                         001089-001089                1
                         001800-001BE0              3E1
        COMMON           00007A-00007D                4           1
        CONST            000003-000003                1           2
                         0007FA-000800                6
                         001089-001089                1
                         001800-001BE0              100
        EEDATA           002100-0021FF              100           2
        ENTRY            000003-000003                1           2
                         0007FA-000800                6
                         001089-001089                1
                         001800-001BE0              100
        IDLOC            002000-002003                4           2
        RAM              00006F-00006F                1           1
                         0000EC-0000EF                4
                         000110-00016F               60
                         0001B8-0001EF               38
        SFR0             000000-00001F               20           1
        SFR1             000080-00009F               20           1
        SFR2             000100-00010F               10           1
        SFR3             000180-00018F               10           1
        STACK            000110-00016F               60           1
        STRCODE          000003-000003                1           2
                         0007FA-000800                7
                         001089-001089                1
                         001800-001BE0              3E1
        STRING           000003-000003                1           2
                         0007FA-000800                6
                         001089-001089                1
                         001800-001BE0              100

                                  Symbol Table

?___awdiv                cstackBANK0  000026
?___awmod                cstackBANK0  000020
?___awtoft               cstackBANK0  000028
?___ftadd                cstackBANK0  000052
?___ftdiv                cstackBANK0  000042
?___ftmul                cstackBANK0  000032
?___ftneg                cstackBANK0  000020
?___ftpack               cstackBANK0  000020
?___ftsub                cstackBANK0  00005F
?___fttol                cstackBANK0  00005F
?___lldiv                cstackBANK0  000020
?___llmod                cstackBANK0  000020
?___lltoft               cstackBANK0  000028
?___wmul                 cstackBANK0  000020
?__div_to_l_             cstackBANK0  000020
?__tdiv_to_l_            cstackBANK0  000020
?_convert_to_dc          cstackBANK0  000052
?_fround                 cstackBANK0  000042
?_scale                  cstackBANK0  000042
?_sprintf                cstackBANK1  0000A0
Lcd_Chr_CP@data          cstackBANK0  000020
Lcd_Cmd@data             cstackBANK0  000020
Lcd_Init@data            cstackBANK0  000023
Lcd_Out2@buffer          cstackBANK0  000022
Lcd_Out2@data            cstackBANK0  000025
Lcd_Out2@x               cstackBANK0  000021
Lcd_Out2@y               cstackBANK0  000024
_ADCON0                  (abs)        00001F
_ADCON0bits              (abs)        00001F
_ADCON1bits              (abs)        00009F
_ADRESH                  (abs)        00001E
_ADRESL                  (abs)        00009E
_ANSEL                   (abs)        000188
_ANSELH                  (abs)        000189
_CCP1CON                 (abs)        000017
_CCPR1L                  (abs)        000015
_INTCONbits              (abs)        00000B
_Lcd_Chr_CP              text27       0011FF
_Lcd_Cmd                 text26       001152
_Lcd_Init                text3        00142A
_Lcd_Out2                text25       001D78
_PIE1bits                (abs)        00008C
_PIR1bits                (abs)        00000C
_PORTA                   (abs)        000005
_PORTB                   (abs)        000006
_PORTBbits               (abs)        000006
_PORTC                   (abs)        000007
_PORTCbits               (abs)        000007
_PORTD                   (abs)        000008
_PORTDbits               (abs)        000008
_PORTE                   (abs)        000009
_PR2                     (abs)        000092
_PSTRCON                 (abs)        00009D
_T2CON                   (abs)        000012
_TRISA                   (abs)        000085
_TRISB                   (abs)        000086
_TRISC                   (abs)        000087
_TRISCbits               (abs)        000087
_TRISD                   (abs)        000088
_TRISDbits               (abs)        000088
_TRISE                   (abs)        000089
__CFG_BOR4V$BOR40V       (abs)        000000
__CFG_BOREN$OFF          (abs)        000000
__CFG_CP$OFF             (abs)        000000
__CFG_CPD$OFF            (abs)        000000
__CFG_FCMEN$OFF          (abs)        000000
__CFG_FOSC$XT            (abs)        000000
__CFG_IESO$OFF           (abs)        000000
__CFG_LVP$OFF            (abs)        000000
__CFG_MCLRE$ON           (abs)        000000
__CFG_PWRTE$OFF          (abs)        000000
__CFG_WDTE$OFF           (abs)        000000
__CFG_WRT$OFF            (abs)        000000
__Habs1                  abs1         000000
__Hbank0                 bank0        000000
__Hbank1                 bank1        000000
__Hbank2                 bank2        000000
__Hbank3                 bank3        000000
__HbssBANK1              bssBANK1     000000
__HbssBANK3              bssBANK3     000000
__HbssCOMMON             bssCOMMON    000000
__Hcinit                 cinit        00003B
__Hclrtext               clrtext      000000
__Hcode                  code         000000
__Hcommon                common       000000
__Hconfig                config       002009
__HcstackBANK0           cstackBANK0  000000
__HcstackBANK1           cstackBANK1  000000
__HcstackCOMMON          cstackCOMMON 000000
__HdataBANK1             dataBANK1    000000
__Heeprom_data           eeprom_data  000000
__Hend_init              end_init     000015
__Hfunctab               functab      000000
__HidataBANK1            idataBANK1   000000
__Hidloc                 idloc        000000
__Hinit                  init         000012
__Hinittext              inittext     000000
__Hintentry              intentry     000012
__Hmaintext              maintext     000000
__Hpowerup               powerup      000000
__Hram                   ram          000000
__Hreset_vec             reset_vec    000003
__Hsfr0                  sfr0         000000
__Hsfr1                  sfr1         000000
__Hsfr2                  sfr2         000000
__Hsfr3                  sfr3         000000
__Hstack                 stack        000000
__Hstrings               strings      000000
__Htext                  text         000000
__Labs1                  abs1         000000
__Lbank0                 bank0        000000
__Lbank1                 bank1        000000
__Lbank2                 bank2        000000
__Lbank3                 bank3        000000
__LbssBANK1              bssBANK1     000000
__LbssBANK3              bssBANK3     000000
__LbssCOMMON             bssCOMMON    000000
__Lcinit                 cinit        000015
__Lclrtext               clrtext      000000
__Lcode                  code         000000
__Lcommon                common       000000
__Lconfig                config       002007
__LcstackBANK0           cstackBANK0  000000
__LcstackBANK1           cstackBANK1  000000
__LcstackCOMMON          cstackCOMMON 000000
__LdataBANK1             dataBANK1    000000
__Leeprom_data           eeprom_data  000000
__Lend_init              end_init     000012
__Lfunctab               functab      000000
__LidataBANK1            idataBANK1   000000
__Lidloc                 idloc        000000
__Linit                  init         000012
__Linittext              inittext     000000
__Lintentry              intentry     000004
__Lmaintext              maintext     000000
__Lpowerup               powerup      000000
__Lram                   ram          000000
__Lreset_vec             reset_vec    000000
__Lsfr0                  sfr0         000000
__Lsfr1                  sfr1         000000
__Lsfr2                  sfr2         000000
__Lsfr3                  sfr3         000000
__Lstack                 stack        000000
__Lstrings               strings      000000
__Ltext                  text         000000
__S0                     (abs)        002009
__S1                     (abs)        0001B8
__S2                     (abs)        000000
__S3                     (abs)        000000
___awdiv                 text13       001E56
___awdiv@counter         cstackBANK0  00002A
___awdiv@dividend        cstackBANK0  000028
___awdiv@divisor         cstackBANK0  000026
___awdiv@quotient        cstackBANK0  00002C
___awdiv@sign            cstackBANK0  00002B
___awmod                 text12       001E07
___awmod@counter         cstackBANK0  000024
___awmod@dividend        cstackBANK0  000022
___awmod@divisor         cstackBANK0  000020
___awmod@sign            cstackBANK0  000025
___awtoft                text32       001C9B
___awtoft@c              cstackBANK0  000028
___awtoft@sign           cstackBANK0  00002B
___bmul                  text11       0007E7
___bmul@multiplicand     cstackBANK0  00002E
___bmul@multiplier       cstackBANK0  000031
___bmul@product          cstackBANK0  000030
___ftadd                 text31       0015C4
___ftadd@exp1            cstackBANK0  00005E
___ftadd@exp2            cstackBANK0  00005D
___ftadd@f1              cstackBANK0  000052
___ftadd@f2              cstackBANK0  000055
___ftadd@sign            cstackBANK0  00005C
___ftdiv                 text30       0012AF
___ftdiv@cntr            cstackBANK0  00004C
___ftdiv@exp             cstackBANK0  000050
___ftdiv@f1              cstackBANK0  000045
___ftdiv@f2              cstackBANK0  000042
___ftdiv@f3              cstackBANK0  00004D
___ftdiv@sign            cstackBANK0  000051
___ftge                  text23       001EB3
___ftge@ff1              cstackBANK0  000020
___ftge@ff2              cstackBANK0  000023
___ftmul                 text29       0014F1
___ftmul@cntr            cstackBANK0  000040
___ftmul@exp             cstackBANK0  00003C
___ftmul@f1              cstackBANK0  000032
___ftmul@f2              cstackBANK0  000035
___ftmul@f3_as_product   cstackBANK0  00003D
___ftmul@sign            cstackBANK0  000041
___ftneg                 text22       001BE9
___ftneg@f1              cstackBANK0  000020
___ftpack                text33       001F12
___ftpack@arg            cstackBANK0  000020
___ftpack@exp            cstackBANK0  000023
___ftpack@sign           cstackBANK0  000024
___ftsub                 text21       001C21
___ftsub@f1              cstackBANK0  000062
___ftsub@f2              cstackBANK0  00005F
___fttol                 text20       0010C4
___fttol@exp1            cstackBANK0  00006C
___fttol@f1              cstackBANK0  00005F
___fttol@lval            cstackBANK0  000068
___fttol@sign1           cstackBANK0  000067
___int_sp                stack        000000
___latbits               (abs)        000002
___lldiv                 text19       000809
___lldiv@counter         cstackBANK0  00002C
___lldiv@dividend        cstackBANK0  000024
___lldiv@divisor         cstackBANK0  000020
___lldiv@quotient        cstackBANK0  000028
___llmod                 text18       001DB9
___llmod@counter         cstackCOMMON 000075
___llmod@dividend        cstackBANK0  000024
___llmod@divisor         cstackBANK0  000020
___lltoft                text17       001D0E
___lltoft@c              cstackBANK0  000028
___lltoft@exp            cstackCOMMON 000075
___sp                    stack        000000
___wmul                  text16       001CC0
___wmul@multiplicand     cstackBANK0  000022
___wmul@multiplier       cstackBANK0  000020
___wmul@product          cstackCOMMON 000074
__div_to_l_              text15       0016CD
__div_to_l_@cntr         cstackBANK0  000032
__div_to_l_@exp1         cstackBANK0  000033
__div_to_l_@f1           cstackBANK0  000020
__div_to_l_@f2           cstackBANK0  000023
__div_to_l_@quot         cstackBANK0  00002E
__end_of_Lcd_Chr_CP      text27       0012AF
__end_of_Lcd_Cmd         text26       0011FF
__end_of_Lcd_Init        text3        0014F1
__end_of_Lcd_Out2        text25       001DB9
__end_of___awdiv         text13       001EB3
__end_of___awmod         text12       001E56
__end_of___awtoft        text32       001CC0
__end_of___bmul          text11       0007FA
__end_of___ftadd         text31       0016CD
__end_of___ftdiv         text30       001367
__end_of___ftge          text23       001F12
__end_of___ftmul         text29       0015C4
__end_of___ftneg         text22       001BF3
__end_of___ftpack        text33       001F7C
__end_of___ftsub         text21       001C3D
__end_of___fttol         text20       001152
__end_of___lldiv         text19       000869
__end_of___llmod         text18       001E07
__end_of___lltoft        text17       001D3F
__end_of___wmul          text16       001CE5
__end_of__div_to_l_      text15       001800
__end_of__initialization cinit        000037
__end_of__npowers_       strings      001055
__end_of__powers_        strings      00107C
__end_of__stringdata     strings      001089
__end_of__stringtab      strings      001006
__end_of__tdiv_to_l_     text14       00142A
__end_of_config_board    text28       001C9B
__end_of_convert_to_dc   text24       0010C4
__end_of_dpowers         strings      00102E
__end_of_fround          text10       0007E7
__end_of_isdigit         text9        001C01
__end_of_isr             text34       001D0E
__end_of_main            maintext     001D78
__end_of_read_adc        text6        002000
__end_of_run_motor       text4        000D49
__end_of_scale           text8        001000
__end_of_set_timer2      text5        001C78
__end_of_sprintf         text7_split_1 000AD5
__end_of_start_lcd       text2        001C5A
__end_of_stop_motor      text1        001C10
__initialization         cinit        000015
__npowers_               strings      00102E
__pbssBANK1              bssBANK1     0000D2
__pbssBANK3              bssBANK3     000190
__pbssCOMMON             bssCOMMON    000076
__pcstackBANK0           cstackBANK0  000020
__pcstackBANK1           cstackBANK1  0000A0
__pcstackCOMMON          cstackCOMMON 000070
__pdataBANK1             dataBANK1    0000E4
__pidataBANK1            idataBANK1   000801
__pintentry              intentry     000004
__pmaintext              maintext     001D3F
__powers_                strings      001055
__pstrings               strings      001000
__ptext1                 text1        001C01
__ptext10                text10       00063F
__ptext11                text11       0007E7
__ptext12                text12       001E07
__ptext13                text13       001E56
__ptext14                text14       001367
__ptext15                text15       0016CD
__ptext16                text16       001CC0
__ptext17                text17       001D0E
__ptext18                text18       001DB9
__ptext19                text19       000809
__ptext2                 text2        001C3D
__ptext20                text20       0010C4
__ptext21                text21       001C21
__ptext22                text22       001BE9
__ptext23                text23       001EB3
__ptext24                text24       00108A
__ptext25                text25       001D78
__ptext26                text26       001152
__ptext27                text27       0011FF
__ptext28                text28       001C78
__ptext29                text29       0014F1
__ptext3                 text3        00142A
__ptext30                text30       0012AF
__ptext31                text31       0015C4
__ptext32                text32       001C9B
__ptext33                text33       001F12
__ptext34                text34       001CE5
__ptext4                 text4        000AD5
__ptext5                 text5        001C5A
__ptext6                 text6        001F7C
__ptext7                 text7        00003B
__ptext8                 text8        000D49
__ptext9                 text9        001BF3
__size_of_Lcd_Chr_CP     (abs)        000000
__size_of_Lcd_Cmd        (abs)        000000
__size_of_Lcd_Init       (abs)        000000
__size_of_Lcd_Out2       (abs)        000000
__size_of___awdiv        (abs)        000000
__size_of___awmod        (abs)        000000
__size_of___awtoft       (abs)        000000
__size_of___bmul         (abs)        000000
__size_of___ftadd        (abs)        000000
__size_of___ftdiv        (abs)        000000
__size_of___ftge         (abs)        000000
__size_of___ftmul        (abs)        000000
__size_of___ftneg        (abs)        000000
__size_of___ftpack       (abs)        000000
__size_of___ftsub        (abs)        000000
__size_of___fttol        (abs)        000000
__size_of___lldiv        (abs)        000000
__size_of___llmod        (abs)        000000
__size_of___lltoft       (abs)        000000
__size_of___wmul         (abs)        000000
__size_of__div_to_l_     (abs)        000000
__size_of__tdiv_to_l_    (abs)        000000
__size_of_config_board   (abs)        000000
__size_of_convert_to_dc  (abs)        000000
__size_of_fround         (abs)        000000
__size_of_isdigit        (abs)        000000
__size_of_isr            (abs)        000000
__size_of_main           (abs)        000000
__size_of_read_adc       (abs)        000000
__size_of_run_motor      (abs)        000000
__size_of_scale          (abs)        000000
__size_of_set_timer2     (abs)        000000
__size_of_sprintf        (abs)        000000
__size_of_start_lcd      (abs)        000000
__size_of_stop_motor     (abs)        000000
__stringbase             strings      001005
__stringdata             strings      00107C
__stringtab              strings      001000
__tdiv_to_l_             text14       001367
__tdiv_to_l_@cntr        cstackBANK0  00002E
__tdiv_to_l_@exp1        cstackBANK0  00002F
__tdiv_to_l_@f1          cstackBANK0  000020
__tdiv_to_l_@f2          cstackBANK0  000023
__tdiv_to_l_@quot        cstackBANK0  00002A
_adc                     bssBANK1     0000DE
_buffer1                 bssBANK3     0001A4
_buffer2                 bssBANK3     000190
_config_board            text28       001C78
_convert_to_dc           text24       00108A
_dcadc                   bssBANK1     0000D2
_dpowers                 strings      001006
_dutycycle               bssCOMMON    000076
_fround                  text10       00063F
_fround$1018             cstackBANK0  00004E
_fround$1019             cstackBANK0  00004B
_isdigit                 text9        001BF3
_isdigit$691             cstackCOMMON 000074
_isr                     text34       001CE5
_main                    maintext     001D3F
_maxdutycycle            bssBANK1     0000E0
_motordirection          dataBANK1    0000E4
_oscfreq                 dataBANK1    0000E6
_oscperiod               bssBANK1     0000D5
_pr2value                bssCOMMON    000078
_pwmfreq                 dataBANK1    0000E9
_pwmperiod               bssBANK1     0000D8
_read_adc                text6        001F7C
_rpm                     bssBANK1     0000DB
_run_motor               text4        000AD5
_run_motor$1017          cstackBANK1  0000A0
_scale                   text8        000D49
_scale$1020              cstackBANK0  000047
_set_timer2              text5        001C5A
_sprintf                 text7        00003B
_sprintf$1021            cstackBANK1  0000AA
_sprintf$506             cstackBANK1  0000AD
_start_lcd               text2        001C3D
_started                 bssBANK1     0000E2
_stop_motor              text1        001C01
btemp                    (abs)        00007E
clear_ram0               clrtext      001BE1
convert_to_dc@adc        cstackBANK0  000052
end_of_initialization    cinit        000037
fround@prec              cstackBANK0  000051
init_fetch0              inittext     001C10
init_ram0                inittext     001C14
interrupt_function       intentry     000004
intlevel0                functab      000000
intlevel1                functab      000000
intlevel2                functab      000000
intlevel3                functab      000000
intlevel4                functab      000000
intlevel5                functab      000000
isdigit@c                cstackCOMMON 000075
ltemp                    (abs)        00007E
ltemp0                   (abs)        00007E
ltemp1                   (abs)        000082
ltemp2                   (abs)        000086
ltemp3                   (abs)        000080
pnum$text7               (abs)        000015
pnum$text7_split_1       (abs)        000032
psplit$0                 (abs)        150032
reset_vec                reset_vec    000000
run_motor@i              cstackBANK1  0000A3
saved_w                  (abs)        00007E
scale@scl                cstackBANK0  00004A
set_timer2@prsc          cstackCOMMON 000074
sprintf@_val             cstackBANK1  0000C7
sprintf@ap               cstackBANK1  0000B1
sprintf@c                cstackBANK1  0000CD
sprintf@exp              cstackBANK1  0000BF
sprintf@f                cstackBANK1  0000A0
sprintf@flag             cstackBANK1  0000BD
sprintf@fval             cstackBANK1  0000C3
sprintf@integ            cstackBANK1  0000BA
sprintf@prec             cstackBANK1  0000CB
sprintf@sp               cstackBANK1  0000C6
sprintf@vd               cstackBANK1  0000B2
sprintf@vd_508           cstackBANK1  0000B6
sprintf@width            cstackBANK1  0000C1
stackhi                  (abs)        000000
stacklo                  (abs)        000000
start                    init         000012
start_initialization     cinit        000015
ttemp                    (abs)        00007E
ttemp0                   (abs)        00007E
ttemp1                   (abs)        000081
ttemp2                   (abs)        000084
ttemp3                   (abs)        000087
ttemp4                   (abs)        00007F
wtemp                    (abs)        00007E
wtemp0                   (abs)        00007E
wtemp1                   (abs)        000080
wtemp2                   (abs)        000082
wtemp3                   (abs)        000084
wtemp4                   (abs)        000086
wtemp5                   (abs)        000088
wtemp6                   (abs)        00007F


FUNCTION INFORMATION:

 *************** function _main *****************
 Defined at:
		line 49 in file "main.c"
 Parameters:    Size  Location     Type
  argc            2   46[BANK1 ] int 
  argv            2   48[BANK1 ] PTR PTR unsigned char 
 Auto vars:     Size  Location     Type
		None
 Return value:  Size  Location     Type
                  2   46[BANK1 ] int 
 Registers used:
		wreg, fsr0l, fsr0h, fsr1l, fsr1h, fsr1l, fsr1h, status,2, status,0, btemp+1, pclath, cstack
 Tracked objects:
		On entry : 
		On exit  : 
		Unchanged: 
 Data sizes:     COMMON   BANK0   BANK1   BANK3   BANK2
      Params:         0       0       4       0       0
      Locals:         0       0       0       0       0
      Temps:          0       0       0       0       0
      Totals:         0       0       4       0       0
Total ram usage:        4 bytes
 Hardware stack levels required when called:    6
 This function calls:
		_config_board
		_read_adc
		_run_motor
		_start_lcd
		_stop_motor
 This function is called by:
		Startup code after reset
 This function uses a non-reentrant model


 *************** function _stop_motor *****************
 Defined at:
		line 105 in file "main.c"
 Parameters:    Size  Location     Type
		None
 Auto vars:     Size  Location     Type
		None
 Return value:  Size  Location     Type
		None               void
 Registers used:
		status,2
 Tracked objects:
		On entry : 
		On exit  : 
		Unchanged: 
 Data sizes:     COMMON   BANK0   BANK1   BANK3   BANK2
      Params:         0       0       0       0       0
      Locals:         0       0       0       0       0
      Temps:          0       0       0       0       0
      Totals:         0       0       0       0       0
Total ram usage:        0 bytes
 Hardware stack levels used:    1
 Hardware stack levels required when called:    1
 This function calls:
		Nothing
 This function is called by:
		_main
 This function uses a non-reentrant model


 *************** function _start_lcd *****************
 Defined at:
		line 167 in file "main.c"
 Parameters:    Size  Location     Type
		None
 Auto vars:     Size  Location     Type
		None
 Return value:  Size  Location     Type
		None               void
 Registers used:
		wreg, status,2, status,0, pclath, cstack
 Tracked objects:
		On entry : 
		On exit  : 
		Unchanged: 
 Data sizes:     COMMON   BANK0   BANK1   BANK3   BANK2
      Params:         0       0       0       0       0
      Locals:         0       0       0       0       0
      Temps:          0       2       0       0       0
      Totals:         0       2       0       0       0
Total ram usage:        2 bytes
 Hardware stack levels used:    1
 Hardware stack levels required when called:    3
 This function calls:
		_Lcd_Cmd
		_Lcd_Init
 This function is called by:
		_main
 This function uses a non-reentrant model


 *************** function _Lcd_Init *****************
 Defined at:
		line 46 in file "lcd.h"
 Parameters:    Size  Location     Type
		None
 Auto vars:     Size  Location     Type
  data            1    3[BANK0 ] unsigned char 
 Return value:  Size  Location     Type
		None               void
 Registers used:
		wreg, status,2, status,0, pclath, cstack
 Tracked objects:
		On entry : 
		On exit  : 
		Unchanged: 
 Data sizes:     COMMON   BANK0   BANK1   BANK3   BANK2
      Params:         0       0       0       0       0
      Locals:         0       1       0       0       0
      Temps:          0       2       0       0       0
      Totals:         0       3       0       0       0
Total ram usage:        3 bytes
 Hardware stack levels used:    1
 Hardware stack levels required when called:    2
 This function calls:
		_Lcd_Cmd
 This function is called by:
		_start_lcd
 This function uses a non-reentrant model


 *************** function _run_motor *****************
 Defined at:
		line 115 in file "main.c"
 Parameters:    Size  Location     Type
		None
 Auto vars:     Size  Location     Type
  i               2    3[BANK1 ] int 
 Return value:  Size  Location     Type
		None               void
 Registers used:
		wreg, status,2, status,0, btemp+1, pclath, cstack
 Tracked objects:
		On entry : 
		On exit  : 
		Unchanged: 
 Data sizes:     COMMON   BANK0   BANK1   BANK3   BANK2
      Params:         0       0       0       0       0
      Locals:         0       0       5       0       0
      Temps:          0       2       0       0       0
      Totals:         0       2       5       0       0
Total ram usage:        7 bytes
 Hardware stack levels used:    1
 Hardware stack levels required when called:    3
 This function calls:
		___awtoft
		___ftadd
		___ftdiv
		___ftmul
		___fttol
		_set_timer2
 This function is called by:
		_main
 This function uses a non-reentrant model


 *************** function _set_timer2 *****************
 Defined at:
		line 155 in file "main.c"
 Parameters:    Size  Location     Type
  prsc            2    4[COMMON] int 
 Auto vars:     Size  Location     Type
		None
 Return value:  Size  Location     Type
		None               void
 Registers used:
		wreg
 Tracked objects:
		On entry : 
		On exit  : 
		Unchanged: 
 Data sizes:     COMMON   BANK0   BANK1   BANK3   BANK2
      Params:         2       0       0       0       0
      Locals:         0       0       0       0       0
      Temps:          0       0       0       0       0
      Totals:         2       0       0       0       0
Total ram usage:        2 bytes
 Hardware stack levels used:    1
 Hardware stack levels required when called:    1
 This function calls:
		Nothing
 This function is called by:
		_run_motor
 This function uses a non-reentrant model


 *************** function _read_adc *****************
 Defined at:
		line 91 in file "main.c"
 Parameters:    Size  Location     Type
		None
 Auto vars:     Size  Location     Type
		None
 Return value:  Size  Location     Type
		None               void
 Registers used:
		wreg, fsr0l, fsr0h, fsr1l, fsr1h, fsr1l, fsr1h, status,2, status,0, btemp+1, pclath, cstack
 Tracked objects:
		On entry : 
		On exit  : 
		Unchanged: 
 Data sizes:     COMMON   BANK0   BANK1   BANK3   BANK2
      Params:         0       0       0       0       0
      Locals:         0       0       0       0       0
      Temps:          0       2       0       0       0
      Totals:         0       2       0       0       0
Total ram usage:        2 bytes
 Hardware stack levels used:    1
 Hardware stack levels required when called:    5
 This function calls:
		_Lcd_Out2
		_convert_to_dc
		_sprintf
 This function is called by:
		_main
 This function uses a non-reentrant model


 *************** function _sprintf *****************
 Defined at:
		line 492 in file "C:\Program Files (x86)\Microchip\xc8\v1.30\sources\common\doprnt.c"
 Parameters:    Size  Location     Type
  sp              1    wreg     PTR unsigned char 
		 -> buffer1(20), 
  f               1    0[BANK1 ] PTR const unsigned char 
		 -> STR_1(13), 
 Auto vars:     Size  Location     Type
  sp              1   38[BANK1 ] PTR unsigned char 
		 -> buffer1(20), 
  vd              4   18[BANK1 ] unsigned long 
  vd              4   22[BANK1 ] unsigned long 
  _val            4   39[BANK1 ] struct .
  fval            3   35[BANK1 ] struct .
  integ           3   26[BANK1 ] struct .
  ival            3    0        struct .
  prec            2   43[BANK1 ] int 
  width           2   33[BANK1 ] int 
  exp             2   31[BANK1 ] int 
  flag            2   29[BANK1 ] unsigned short 
  c               1   45[BANK1 ] char 
  ap              1   17[BANK1 ] PTR void [1]
		 -> ?_sprintf(2), 
  d               1    0        unsigned char 
 Return value:  Size  Location     Type
                  2    0[BANK1 ] int 
 Registers used:
		wreg, fsr0l, fsr0h, status,2, status,0, btemp+1, pclath, cstack
 Tracked objects:
		On entry : 
		On exit  : 
		Unchanged: 
 Data sizes:     COMMON   BANK0   BANK1   BANK3   BANK2
      Params:         0       0       4       0       0
      Locals:         0       0      36       0       0
      Temps:          0       0       6       0       0
      Totals:         0       0      46       0       0
Total ram usage:       46 bytes
 Hardware stack levels used:    1
 Hardware stack levels required when called:    4
 This function calls:
		___awdiv
		___ftadd
		___ftge
		___ftmul
		___ftneg
		___ftsub
		___fttol
		___lldiv
		___llmod
		___lltoft
		___wmul
		__div_to_l_
		__tdiv_to_l_
		_fround
		_isdigit
		_scale
 This function is called by:
		_read_adc
 This function uses a non-reentrant model


 *************** function _scale *****************
 Defined at:
		line 425 in file "C:\Program Files (x86)\Microchip\xc8\v1.30\sources\common\doprnt.c"
 Parameters:    Size  Location     Type
  scl             1    wreg     char 
 Auto vars:     Size  Location     Type
  scl             1   42[BANK0 ] char 
 Return value:  Size  Location     Type
                  3   34[BANK0 ] char 
 Registers used:
		wreg, fsr0l, fsr0h, status,2, status,0, pclath, cstack
 Tracked objects:
		On entry : 
		On exit  : 
		Unchanged: 
 Data sizes:     COMMON   BANK0   BANK1   BANK3   BANK2
      Params:         0       3       0       0       0
      Locals:         0       4       0       0       0
      Temps:          0       2       0       0       0
      Totals:         0       9       0       0       0
Total ram usage:        9 bytes
 Hardware stack levels used:    1
 Hardware stack levels required when called:    3
 This function calls:
		___awdiv
		___awmod
		___bmul
		___ftmul
 This function is called by:
		_sprintf
 This function uses a non-reentrant model


 *************** function _isdigit *****************
 Defined at:
		line 8 in file "C:\Program Files (x86)\Microchip\xc8\v1.30\sources\common\isdigit.c"
 Parameters:    Size  Location     Type
  c               1    wreg     unsigned char 
 Auto vars:     Size  Location     Type
  c               1    5[COMMON] unsigned char 
 Return value:  Size  Location     Type
		None               void
 Registers used:
		wreg, status,2, status,0
 Tracked objects:
		On entry : 
		On exit  : 
		Unchanged: 
 Data sizes:     COMMON   BANK0   BANK1   BANK3   BANK2
      Params:         0       0       0       0       0
      Locals:         2       0       0       0       0
      Temps:          0       0       0       0       0
      Totals:         2       0       0       0       0
Total ram usage:        2 bytes
 Hardware stack levels used:    1
 Hardware stack levels required when called:    1
 This function calls:
		Nothing
 This function is called by:
		_sprintf
 This function uses a non-reentrant model


 *************** function _fround *****************
 Defined at:
		line 409 in file "C:\Program Files (x86)\Microchip\xc8\v1.30\sources\common\doprnt.c"
 Parameters:    Size  Location     Type
  prec            1    wreg     unsigned char 
 Auto vars:     Size  Location     Type
  prec            1   49[BANK0 ] unsigned char 
 Return value:  Size  Location     Type
                  3   34[BANK0 ] unsigned char 
 Registers used:
		wreg, fsr0l, fsr0h, status,2, status,0, pclath, cstack
 Tracked objects:
		On entry : 
		On exit  : 
		Unchanged: 
 Data sizes:     COMMON   BANK0   BANK1   BANK3   BANK2
      Params:         0       3       0       0       0
      Locals:         0       7       0       0       0
      Temps:          0       6       0       0       0
      Totals:         0      16       0       0       0
Total ram usage:       16 bytes
 Hardware stack levels used:    1
 Hardware stack levels required when called:    3
 This function calls:
		___awdiv
		___awmod
		___bmul
		___ftmul
 This function is called by:
		_sprintf
 This function uses a non-reentrant model


 *************** function ___bmul *****************
 Defined at:
		line 2 in file "C:\Program Files (x86)\Microchip\xc8\v1.30\sources\common\bmul.c"
 Parameters:    Size  Location     Type
  multiplier      1    wreg     unsigned char 
  multiplicand    1   14[BANK0 ] unsigned char 
 Auto vars:     Size  Location     Type
  multiplier      1   17[BANK0 ] unsigned char 
  product         1   16[BANK0 ] unsigned char 
 Return value:  Size  Location     Type
                  1    wreg      unsigned char 
 Registers used:
		wreg, status,2, status,0
 Tracked objects:
		On entry : 
		On exit  : 
		Unchanged: 
 Data sizes:     COMMON   BANK0   BANK1   BANK3   BANK2
      Params:         0       1       0       0       0
      Locals:         0       2       0       0       0
      Temps:          0       1       0       0       0
      Totals:         0       4       0       0       0
Total ram usage:        4 bytes
 Hardware stack levels used:    1
 Hardware stack levels required when called:    1
 This function calls:
		Nothing
 This function is called by:
		_fround
		_scale
 This function uses a non-reentrant model


 *************** function ___awmod *****************
 Defined at:
		line 6 in file "C:\Program Files (x86)\Microchip\xc8\v1.30\sources\common\awmod.c"
 Parameters:    Size  Location     Type
  divisor         2    0[BANK0 ] int 
  dividend        2    2[BANK0 ] int 
 Auto vars:     Size  Location     Type
  sign            1    5[BANK0 ] unsigned char 
  counter         1    4[BANK0 ] unsigned char 
 Return value:  Size  Location     Type
                  2    0[BANK0 ] int 
 Registers used:
		wreg, status,2, status,0
 Tracked objects:
		On entry : 
		On exit  : 
		Unchanged: 
 Data sizes:     COMMON   BANK0   BANK1   BANK3   BANK2
      Params:         0       4       0       0       0
      Locals:         0       2       0       0       0
      Temps:          1       0       0       0       0
      Totals:         1       6       0       0       0
Total ram usage:        7 bytes
 Hardware stack levels used:    1
 Hardware stack levels required when called:    1
 This function calls:
		Nothing
 This function is called by:
		_fround
		_scale
 This function uses a non-reentrant model


 *************** function ___awdiv *****************
 Defined at:
		line 6 in file "C:\Program Files (x86)\Microchip\xc8\v1.30\sources\common\awdiv.c"
 Parameters:    Size  Location     Type
  divisor         2    6[BANK0 ] int 
  dividend        2    8[BANK0 ] int 
 Auto vars:     Size  Location     Type
  quotient        2   12[BANK0 ] int 
  sign            1   11[BANK0 ] unsigned char 
  counter         1   10[BANK0 ] unsigned char 
 Return value:  Size  Location     Type
                  2    6[BANK0 ] int 
 Registers used:
		wreg, status,2, status,0
 Tracked objects:
		On entry : 
		On exit  : 
		Unchanged: 
 Data sizes:     COMMON   BANK0   BANK1   BANK3   BANK2
      Params:         0       4       0       0       0
      Locals:         0       4       0       0       0
      Temps:          1       0       0       0       0
      Totals:         1       8       0       0       0
Total ram usage:        9 bytes
 Hardware stack levels used:    1
 Hardware stack levels required when called:    1
 This function calls:
		Nothing
 This function is called by:
		_fround
		_scale
		_sprintf
 This function uses a non-reentrant model


 *************** function __tdiv_to_l_ *****************
 Defined at:
		line 60 in file "C:\Program Files (x86)\Microchip\xc8\v1.30\sources\common\ftdivl.c"
 Parameters:    Size  Location     Type
  f1              3    0[BANK0 ] float 
  f2              3    3[BANK0 ] float 
 Auto vars:     Size  Location     Type
  quot            4   10[BANK0 ] unsigned long 
  exp1            1   15[BANK0 ] unsigned char 
  cntr            1   14[BANK0 ] unsigned char 
 Return value:  Size  Location     Type
                  4    0[BANK0 ] unsigned long 
 Registers used:
		wreg, status,2, status,0
 Tracked objects:
		On entry : 
		On exit  : 
		Unchanged: 
 Data sizes:     COMMON   BANK0   BANK1   BANK3   BANK2
      Params:         0       6       0       0       0
      Locals:         0       6       0       0       0
      Temps:          0       4       0       0       0
      Totals:         0      16       0       0       0
Total ram usage:       16 bytes
 Hardware stack levels used:    1
 Hardware stack levels required when called:    1
 This function calls:
		Nothing
 This function is called by:
		_sprintf
 This function uses a non-reentrant model


 *************** function __div_to_l_ *****************
 Defined at:
		line 60 in file "C:\Program Files (x86)\Microchip\xc8\v1.30\sources\common\fldivl.c"
 Parameters:    Size  Location     Type
  f1              3    0[BANK0 ] unsigned long 
  f2              3    3[BANK0 ] unsigned long 
 Auto vars:     Size  Location     Type
  quot            4   14[BANK0 ] unsigned long 
  exp1            1   19[BANK0 ] unsigned char 
  cntr            1   18[BANK0 ] unsigned char 
 Return value:  Size  Location     Type
                  4    0[BANK0 ] unsigned long 
 Registers used:
		wreg, fsr0l, fsr0h, status,2, status,0
 Tracked objects:
		On entry : 
		On exit  : 
		Unchanged: 
 Data sizes:     COMMON   BANK0   BANK1   BANK3   BANK2
      Params:         0       6       0       0       0
      Locals:         0       6       0       0       0
      Temps:          0       8       0       0       0
      Totals:         0      20       0       0       0
Total ram usage:       20 bytes
 Hardware stack levels used:    1
 Hardware stack levels required when called:    1
 This function calls:
		Nothing
 This function is called by:
		_sprintf
 This function uses a non-reentrant model


 *************** function ___wmul *****************
 Defined at:
		line 4 in file "C:\Program Files (x86)\Microchip\xc8\v1.30\sources\common\wmul.c"
 Parameters:    Size  Location     Type
  multiplier      2    0[BANK0 ] unsigned int 
  multiplicand    2    2[BANK0 ] unsigned int 
 Auto vars:     Size  Location     Type
  product         2    4[COMMON] unsigned int 
 Return value:  Size  Location     Type
                  2    0[BANK0 ] unsigned int 
 Registers used:
		wreg, status,2, status,0
 Tracked objects:
		On entry : 
		On exit  : 
		Unchanged: 
 Data sizes:     COMMON   BANK0   BANK1   BANK3   BANK2
      Params:         0       4       0       0       0
      Locals:         2       0       0       0       0
      Temps:          0       0       0       0       0
      Totals:         2       4       0       0       0
Total ram usage:        6 bytes
 Hardware stack levels used:    1
 Hardware stack levels required when called:    1
 This function calls:
		Nothing
 This function is called by:
		_sprintf
 This function uses a non-reentrant model


 *************** function ___lltoft *****************
 Defined at:
		line 35 in file "C:\Program Files (x86)\Microchip\xc8\v1.30\sources\common\lltoft.c"
 Parameters:    Size  Location     Type
  c               4    8[BANK0 ] unsigned long 
 Auto vars:     Size  Location     Type
  exp             1    5[COMMON] unsigned char 
 Return value:  Size  Location     Type
                  3    8[BANK0 ] float 
 Registers used:
		wreg, status,2, status,0, pclath, cstack
 Tracked objects:
		On entry : 
		On exit  : 
		Unchanged: 
 Data sizes:     COMMON   BANK0   BANK1   BANK3   BANK2
      Params:         0       4       0       0       0
      Locals:         1       0       0       0       0
      Temps:          1       0       0       0       0
      Totals:         2       4       0       0       0
Total ram usage:        6 bytes
 Hardware stack levels used:    1
 Hardware stack levels required when called:    2
 This function calls:
		___ftpack
 This function is called by:
		_sprintf
 This function uses a non-reentrant model


 *************** function ___llmod *****************
 Defined at:
		line 6 in file "C:\Program Files (x86)\Microchip\xc8\v1.30\sources\common\llmod.c"
 Parameters:    Size  Location     Type
  divisor         4    0[BANK0 ] unsigned long 
  dividend        4    4[BANK0 ] unsigned long 
 Auto vars:     Size  Location     Type
  counter         1    5[COMMON] unsigned char 
 Return value:  Size  Location     Type
                  4    0[BANK0 ] unsigned long 
 Registers used:
		wreg, status,2, status,0
 Tracked objects:
		On entry : 
		On exit  : 
		Unchanged: 
 Data sizes:     COMMON   BANK0   BANK1   BANK3   BANK2
      Params:         0       8       0       0       0
      Locals:         1       0       0       0       0
      Temps:          1       0       0       0       0
      Totals:         2       8       0       0       0
Total ram usage:       10 bytes
 Hardware stack levels used:    1
 Hardware stack levels required when called:    1
 This function calls:
		Nothing
 This function is called by:
		_sprintf
 This function uses a non-reentrant model


 *************** function ___lldiv *****************
 Defined at:
		line 6 in file "C:\Program Files (x86)\Microchip\xc8\v1.30\sources\common\lldiv.c"
 Parameters:    Size  Location     Type
  divisor         4    0[BANK0 ] unsigned long 
  dividend        4    4[BANK0 ] unsigned long 
 Auto vars:     Size  Location     Type
  quotient        4    8[BANK0 ] unsigned long 
  counter         1   12[BANK0 ] unsigned char 
 Return value:  Size  Location     Type
                  4    0[BANK0 ] unsigned long 
 Registers used:
		wreg, status,2, status,0
 Tracked objects:
		On entry : 
		On exit  : 
		Unchanged: 
 Data sizes:     COMMON   BANK0   BANK1   BANK3   BANK2
      Params:         0       8       0       0       0
      Locals:         0       5       0       0       0
      Temps:          1       0       0       0       0
      Totals:         1      13       0       0       0
Total ram usage:       14 bytes
 Hardware stack levels used:    1
 Hardware stack levels required when called:    1
 This function calls:
		Nothing
 This function is called by:
		_sprintf
 This function uses a non-reentrant model


 *************** function ___fttol *****************
 Defined at:
		line 44 in file "C:\Program Files (x86)\Microchip\xc8\v1.30\sources\common\fttol.c"
 Parameters:    Size  Location     Type
  f1              3   63[BANK0 ] float 
 Auto vars:     Size  Location     Type
  lval            4   72[BANK0 ] unsigned long 
  exp1            1   76[BANK0 ] unsigned char 
  sign1           1   71[BANK0 ] unsigned char 
 Return value:  Size  Location     Type
                  4   63[BANK0 ] long 
 Registers used:
		wreg, status,2, status,0
 Tracked objects:
		On entry : 
		On exit  : 
		Unchanged: 
 Data sizes:     COMMON   BANK0   BANK1   BANK3   BANK2
      Params:         0       4       0       0       0
      Locals:         0       6       0       0       0
      Temps:          0       4       0       0       0
      Totals:         0      14       0       0       0
Total ram usage:       14 bytes
 Hardware stack levels used:    1
 Hardware stack levels required when called:    1
 This function calls:
		Nothing
 This function is called by:
		_run_motor
		_sprintf
 This function uses a non-reentrant model


 *************** function ___ftsub *****************
 Defined at:
		line 18 in file "C:\Program Files (x86)\Microchip\xc8\v1.30\sources\common\ftsub.c"
 Parameters:    Size  Location     Type
  f2              3   63[BANK0 ] float 
  f1              3   66[BANK0 ] float 
 Auto vars:     Size  Location     Type
		None
 Return value:  Size  Location     Type
                  3   63[BANK0 ] float 
 Registers used:
		wreg, status,2, status,0, pclath, cstack
 Tracked objects:
		On entry : 
		On exit  : 
		Unchanged: 
 Data sizes:     COMMON   BANK0   BANK1   BANK3   BANK2
      Params:         0       6       0       0       0
      Locals:         0       0       0       0       0
      Temps:          0       0       0       0       0
      Totals:         0       6       0       0       0
Total ram usage:        6 bytes
 Hardware stack levels used:    1
 Hardware stack levels required when called:    3
 This function calls:
		___ftadd
 This function is called by:
		_sprintf
 This function uses a non-reentrant model


 *************** function ___ftneg *****************
 Defined at:
		line 15 in file "C:\Program Files (x86)\Microchip\xc8\v1.30\sources\common\ftneg.c"
 Parameters:    Size  Location     Type
  f1              3    0[BANK0 ] float 
 Auto vars:     Size  Location     Type
		None
 Return value:  Size  Location     Type
                  3    0[BANK0 ] float 
 Registers used:
		wreg
 Tracked objects:
		On entry : 
		On exit  : 
		Unchanged: 
 Data sizes:     COMMON   BANK0   BANK1   BANK3   BANK2
      Params:         0       3       0       0       0
      Locals:         0       0       0       0       0
      Temps:          0       0       0       0       0
      Totals:         0       3       0       0       0
Total ram usage:        3 bytes
 Hardware stack levels used:    1
 Hardware stack levels required when called:    1
 This function calls:
		Nothing
 This function is called by:
		_sprintf
 This function uses a non-reentrant model


 *************** function ___ftge *****************
 Defined at:
		line 4 in file "C:\Program Files (x86)\Microchip\xc8\v1.30\sources\common\ftge.c"
 Parameters:    Size  Location     Type
  ff1             3    0[BANK0 ] float 
  ff2             3    3[BANK0 ] float 
 Auto vars:     Size  Location     Type
		None
 Return value:  Size  Location     Type
		None               void
 Registers used:
		wreg, status,2, status,0
 Tracked objects:
		On entry : 
		On exit  : 
		Unchanged: 
 Data sizes:     COMMON   BANK0   BANK1   BANK3   BANK2
      Params:         0       6       0       0       0
      Locals:         0       0       0       0       0
      Temps:          0       6       0       0       0
      Totals:         0      12       0       0       0
Total ram usage:       12 bytes
 Hardware stack levels used:    1
 Hardware stack levels required when called:    1
 This function calls:
		Nothing
 This function is called by:
		_sprintf
 This function uses a non-reentrant model


 *************** function _convert_to_dc *****************
 Defined at:
		line 174 in file "main.c"
 Parameters:    Size  Location     Type
  adc             2   50[BANK0 ] int 
 Auto vars:     Size  Location     Type
		None
 Return value:  Size  Location     Type
                  3   50[BANK0 ] float 
 Registers used:
		wreg, status,2, status,0, pclath, cstack
 Tracked objects:
		On entry : 
		On exit  : 
		Unchanged: 
 Data sizes:     COMMON   BANK0   BANK1   BANK3   BANK2
      Params:         0       3       0       0       0
      Locals:         0       0       0       0       0
      Temps:          0       0       0       0       0
      Totals:         0       3       0       0       0
Total ram usage:        3 bytes
 Hardware stack levels used:    1
 Hardware stack levels required when called:    3
 This function calls:
		___awtoft
		___ftdiv
		___ftmul
 This function is called by:
		_read_adc
 This function uses a non-reentrant model


 *************** function _Lcd_Out2 *****************
 Defined at:
		line 109 in file "lcd.h"
 Parameters:    Size  Location     Type
  y               1    wreg     unsigned char 
  x               1    1[BANK0 ] unsigned char 
  buffer          1    2[BANK0 ] PTR unsigned char 
		 -> buffer1(20), 
 Auto vars:     Size  Location     Type
  y               1    4[BANK0 ] unsigned char 
  data            1    5[BANK0 ] unsigned char 
 Return value:  Size  Location     Type
		None               void
 Registers used:
		wreg, fsr0l, fsr0h, status,2, status,0, pclath, cstack
 Tracked objects:
		On entry : 
		On exit  : 
		Unchanged: 
 Data sizes:     COMMON   BANK0   BANK1   BANK3   BANK2
      Params:         0       2       0       0       0
      Locals:         0       2       0       0       0
      Temps:          0       1       0       0       0
      Totals:         0       5       0       0       0
Total ram usage:        5 bytes
 Hardware stack levels used:    1
 Hardware stack levels required when called:    2
 This function calls:
		_Lcd_Chr_CP
		_Lcd_Cmd
 This function is called by:
		_read_adc
 This function uses a non-reentrant model


 *************** function _Lcd_Cmd *****************
 Defined at:
		line 144 in file "lcd.h"
 Parameters:    Size  Location     Type
  data            1    wreg     unsigned char 
 Auto vars:     Size  Location     Type
  data            1    0[BANK0 ] unsigned char 
 Return value:  Size  Location     Type
		None               void
 Registers used:
		wreg, status,2, status,0
 Tracked objects:
		On entry : 
		On exit  : 
		Unchanged: 
 Data sizes:     COMMON   BANK0   BANK1   BANK3   BANK2
      Params:         0       0       0       0       0
      Locals:         0       1       0       0       0
      Temps:          2       0       0       0       0
      Totals:         2       1       0       0       0
Total ram usage:        3 bytes
 Hardware stack levels used:    1
 Hardware stack levels required when called:    1
 This function calls:
		Nothing
 This function is called by:
		_Lcd_Init
		_Lcd_Out2
		_start_lcd
		_Lcd_Out
 This function uses a non-reentrant model


 *************** function _Lcd_Chr_CP *****************
 Defined at:
		line 130 in file "lcd.h"
 Parameters:    Size  Location     Type
  data            1    wreg     unsigned char 
 Auto vars:     Size  Location     Type
  data            1    0[BANK0 ] unsigned char 
 Return value:  Size  Location     Type
		None               void
 Registers used:
		wreg, status,2, status,0
 Tracked objects:
		On entry : 
		On exit  : 
		Unchanged: 
 Data sizes:     COMMON   BANK0   BANK1   BANK3   BANK2
      Params:         0       0       0       0       0
      Locals:         0       1       0       0       0
      Temps:          2       0       0       0       0
      Totals:         2       1       0       0       0
Total ram usage:        3 bytes
 Hardware stack levels used:    1
 Hardware stack levels required when called:    1
 This function calls:
		Nothing
 This function is called by:
		_Lcd_Out2
		_Lcd_Out
 This function uses a non-reentrant model


 *************** function _config_board *****************
 Defined at:
		line 3 in file "Config.c"
 Parameters:    Size  Location     Type
		None
 Auto vars:     Size  Location     Type
		None
 Return value:  Size  Location     Type
		None               void
 Registers used:
		wreg, status,2
 Tracked objects:
		On entry : 
		On exit  : 
		Unchanged: 
 Data sizes:     COMMON   BANK0   BANK1   BANK3   BANK2
      Params:         0       0       0       0       0
      Locals:         0       0       0       0       0
      Temps:          0       0       0       0       0
      Totals:         0       0       0       0       0
Total ram usage:        0 bytes
 Hardware stack levels used:    1
 Hardware stack levels required when called:    1
 This function calls:
		Nothing
 This function is called by:
		_main
 This function uses a non-reentrant model


 *************** function ___ftmul *****************
 Defined at:
		line 51 in file "C:\Program Files (x86)\Microchip\xc8\v1.30\sources\common\ftmul.c"
 Parameters:    Size  Location     Type
  f1              3   18[BANK0 ] float 
  f2              3   21[BANK0 ] float 
 Auto vars:     Size  Location     Type
  f3_as_produc    3   29[BANK0 ] unsigned um
  sign            1   33[BANK0 ] unsigned char 
  cntr            1   32[BANK0 ] unsigned char 
  exp             1   28[BANK0 ] unsigned char 
 Return value:  Size  Location     Type
                  3   18[BANK0 ] float 
 Registers used:
		wreg, status,2, status,0, pclath, cstack
 Tracked objects:
		On entry : 
		On exit  : 
		Unchanged: 
 Data sizes:     COMMON   BANK0   BANK1   BANK3   BANK2
      Params:         0       6       0       0       0
      Locals:         0       6       0       0       0
      Temps:          0       4       0       0       0
      Totals:         0      16       0       0       0
Total ram usage:       16 bytes
 Hardware stack levels used:    1
 Hardware stack levels required when called:    2
 This function calls:
		___ftpack
 This function is called by:
		_run_motor
		_convert_to_dc
		_fround
		_scale
		_sprintf
 This function uses a non-reentrant model


 *************** function ___ftdiv *****************
 Defined at:
		line 49 in file "C:\Program Files (x86)\Microchip\xc8\v1.30\sources\pic\ftdiv.c"
 Parameters:    Size  Location     Type
  f2              3   34[BANK0 ] float 
  f1              3   37[BANK0 ] float 
 Auto vars:     Size  Location     Type
  f3              3   45[BANK0 ] float 
  sign            1   49[BANK0 ] unsigned char 
  exp             1   48[BANK0 ] unsigned char 
  cntr            1   44[BANK0 ] unsigned char 
 Return value:  Size  Location     Type
                  3   34[BANK0 ] float 
 Registers used:
		wreg, status,2, status,0, pclath, cstack
 Tracked objects:
		On entry : 
		On exit  : 
		Unchanged: 
 Data sizes:     COMMON   BANK0   BANK1   BANK3   BANK2
      Params:         0       6       0       0       0
      Locals:         0       6       0       0       0
      Temps:          0       4       0       0       0
      Totals:         0      16       0       0       0
Total ram usage:       16 bytes
 Hardware stack levels used:    1
 Hardware stack levels required when called:    2
 This function calls:
		___ftpack
 This function is called by:
		_run_motor
		_convert_to_dc
 This function uses a non-reentrant model


 *************** function ___ftadd *****************
 Defined at:
		line 86 in file "C:\Program Files (x86)\Microchip\xc8\v1.30\sources\common\ftadd.c"
 Parameters:    Size  Location     Type
  f1              3   50[BANK0 ] float 
  f2              3   53[BANK0 ] float 
 Auto vars:     Size  Location     Type
  exp1            1   62[BANK0 ] unsigned char 
  exp2            1   61[BANK0 ] unsigned char 
  sign            1   60[BANK0 ] unsigned char 
 Return value:  Size  Location     Type
                  3   50[BANK0 ] float 
 Registers used:
		wreg, status,2, status,0, pclath, cstack
 Tracked objects:
		On entry : 
		On exit  : 
		Unchanged: 
 Data sizes:     COMMON   BANK0   BANK1   BANK3   BANK2
      Params:         0       6       0       0       0
      Locals:         0       3       0       0       0
      Temps:          0       4       0       0       0
      Totals:         0      13       0       0       0
Total ram usage:       13 bytes
 Hardware stack levels used:    1
 Hardware stack levels required when called:    2
 This function calls:
		___ftpack
 This function is called by:
		_run_motor
		_sprintf
		___ftsub
 This function uses a non-reentrant model


 *************** function ___awtoft *****************
 Defined at:
		line 32 in file "C:\Program Files (x86)\Microchip\xc8\v1.30\sources\common\awtoft.c"
 Parameters:    Size  Location     Type
  c               2    8[BANK0 ] int 
 Auto vars:     Size  Location     Type
  sign            1   11[BANK0 ] unsigned char 
 Return value:  Size  Location     Type
                  3    8[BANK0 ] float 
 Registers used:
		wreg, status,2, status,0, pclath, cstack
 Tracked objects:
		On entry : 
		On exit  : 
		Unchanged: 
 Data sizes:     COMMON   BANK0   BANK1   BANK3   BANK2
      Params:         0       3       0       0       0
      Locals:         0       1       0       0       0
      Temps:          2       0       0       0       0
      Totals:         2       4       0       0       0
Total ram usage:        6 bytes
 Hardware stack levels used:    1
 Hardware stack levels required when called:    2
 This function calls:
		___ftpack
 This function is called by:
		_run_motor
		_convert_to_dc
 This function uses a non-reentrant model


 *************** function ___ftpack *****************
 Defined at:
		line 62 in file "C:\Program Files (x86)\Microchip\xc8\v1.30\sources\common\float.c"
 Parameters:    Size  Location     Type
  arg             3    0[BANK0 ] unsigned um
  exp             1    3[BANK0 ] unsigned char 
  sign            1    4[BANK0 ] unsigned char 
 Auto vars:     Size  Location     Type
		None
 Return value:  Size  Location     Type
                  3    0[BANK0 ] float 
 Registers used:
		wreg, status,2, status,0
 Tracked objects:
		On entry : 
		On exit  : 
		Unchanged: 
 Data sizes:     COMMON   BANK0   BANK1   BANK3   BANK2
      Params:         0       5       0       0       0
      Locals:         0       0       0       0       0
      Temps:          0       3       0       0       0
      Totals:         0       8       0       0       0
Total ram usage:        8 bytes
 Hardware stack levels used:    1
 Hardware stack levels required when called:    1
 This function calls:
		Nothing
 This function is called by:
		___awtoft
		___ftadd
		___ftdiv
		___ftmul
		___lltoft
 This function uses a non-reentrant model


 *************** function _isr *****************
 Defined at:
		line 74 in file "main.c"
 Parameters:    Size  Location     Type
		None
 Auto vars:     Size  Location     Type
		None
 Return value:  Size  Location     Type
		None               void
 Registers used:
		wreg, status,2, status,0
 Tracked objects:
		On entry : 
		On exit  : 
		Unchanged: 
 Data sizes:     COMMON   BANK0   BANK1   BANK3   BANK2
      Params:         0       0       0       0       0
      Locals:         0       0       0       0       0
      Temps:          4       0       0       0       0
      Totals:         4       0       0       0       0
Total ram usage:        4 bytes
 Hardware stack levels used:    1
 This function calls:
		Nothing
 This function is called by:
		Interrupt level 1
 This function uses a non-reentrant model



MODULE INFORMATION

Module		Function		Class		Link	Load	Size
C:\Program Files (x86)\Microchip\xc8\v1.30\sources\common\ftadd.c
		___ftadd       		CODE           	15C4	0000	265

C:\Program Files (x86)\Microchip\xc8\v1.30\sources\common\ftadd.c estimated size: 265

lcd.h
		_Lcd_Init      		CODE           	142A	0000	199
		_Lcd_Out2      		CODE           	1D78	0000	65
		_Lcd_Chr_CP    		CODE           	11FF	0000	176
		_Lcd_Cmd       		CODE           	1152	0000	173

lcd.h estimated size: 613

C:\Program Files (x86)\Microchip\xc8\v1.30\sources\common\float.c
		___ftpack      		CODE           	1F12	0000	106

C:\Program Files (x86)\Microchip\xc8\v1.30\sources\common\float.c estimated size: 106

C:\Program Files (x86)\Microchip\xc8\v1.30\sources\common\ftge.c
		___ftge        		CODE           	1EB3	0000	95

C:\Program Files (x86)\Microchip\xc8\v1.30\sources\common\ftge.c estimated size: 95

C:\Program Files (x86)\Microchip\xc8\v1.30\sources\common\wmul.c
		___wmul        		CODE           	1CC0	0000	37

C:\Program Files (x86)\Microchip\xc8\v1.30\sources\common\wmul.c estimated size: 37

shared
		__stringtab    		STRING         	1000	0000	6
		__stringdata   		STRING         	107C	0000	13
		__powers_      		STRING         	1055	0000	39
		_dpowers       		STRING         	1006	0000	40
		__npowers_     		STRING         	102E	0000	39
		__initializatio		CODE           	0015	0000	34

shared estimated size: 171

C:\Program Files (x86)\Microchip\xc8\v1.30\sources\common\llmod.c
		___llmod       		CODE           	1DB9	0000	78

C:\Program Files (x86)\Microchip\xc8\v1.30\sources\common\llmod.c estimated size: 78

C:\Program Files (x86)\Microchip\xc8\v1.30\sources\common\doprnt.c
		_scale         		CODE           	0D49	0000	695
		_sprintf       		CODE           	003B	0000	2714
		_fround        		CODE           	063F	0000	424

C:\Program Files (x86)\Microchip\xc8\v1.30\sources\common\doprnt.c estimated size: 3833

main.c
		_main          		CODE           	1D3F	0000	57
		_stop_motor    		CODE           	1C01	0000	15
		_run_motor     		CODE           	0AD5	0000	628
		_isr           		CODE           	1CE5	0000	41
		_set_timer2    		CODE           	1C5A	0000	30
		_start_lcd     		CODE           	1C3D	0000	29
		_read_adc      		CODE           	1F7C	0000	132
		_convert_to_dc 		CODE           	108A	0000	58

main.c estimated size: 990

C:\Program Files (x86)\Microchip\xc8\v1.30\sources\common\lldiv.c
		___lldiv       		CODE           	0809	0000	96

C:\Program Files (x86)\Microchip\xc8\v1.30\sources\common\lldiv.c estimated size: 96

C:\Program Files (x86)\Microchip\xc8\v1.30\sources\common\ftsub.c
		___ftsub       		CODE           	1C21	0000	28

C:\Program Files (x86)\Microchip\xc8\v1.30\sources\common\ftsub.c estimated size: 28

C:\Program Files (x86)\Microchip\xc8\v1.30\sources\common\ftneg.c
		___ftneg       		CODE           	1BE9	0000	10

C:\Program Files (x86)\Microchip\xc8\v1.30\sources\common\ftneg.c estimated size: 10

C:\Program Files (x86)\Microchip\xc8\v1.30\sources\common\isdigit.c
		_isdigit       		CODE           	1BF3	0000	14

C:\Program Files (x86)\Microchip\xc8\v1.30\sources\common\isdigit.c estimated size: 14

C:\Program Files (x86)\Microchip\xc8\v1.30\sources\common\fldivl.c
		__div_to_l_    		CODE           	16CD	0000	307

C:\Program Files (x86)\Microchip\xc8\v1.30\sources\common\fldivl.c estimated size: 307

C:\Program Files (x86)\Microchip\xc8\v1.30\sources\common\bmul.c
		___bmul        		CODE           	07E7	0000	19

C:\Program Files (x86)\Microchip\xc8\v1.30\sources\common\bmul.c estimated size: 19

C:\Program Files (x86)\Microchip\xc8\v1.30\sources\common\ftmul.c
		___ftmul       		CODE           	14F1	0000	211

C:\Program Files (x86)\Microchip\xc8\v1.30\sources\common\ftmul.c estimated size: 211

C:\Program Files (x86)\Microchip\xc8\v1.30\sources\common\fttol.c
		___fttol       		CODE           	10C4	0000	142

C:\Program Files (x86)\Microchip\xc8\v1.30\sources\common\fttol.c estimated size: 142

C:\Program Files (x86)\Microchip\xc8\v1.30\sources\pic\ftdiv.c
		___ftdiv       		CODE           	12AF	0000	184

C:\Program Files (x86)\Microchip\xc8\v1.30\sources\pic\ftdiv.c estimated size: 184

C:\Program Files (x86)\Microchip\xc8\v1.30\sources\common\ftdivl.c
		__tdiv_to_l_   		CODE           	1367	0000	195

C:\Program Files (x86)\Microchip\xc8\v1.30\sources\common\ftdivl.c estimated size: 195

C:\Program Files (x86)\Microchip\xc8\v1.30\sources\common\awtoft.c
		___awtoft      		CODE           	1C9B	0000	37

C:\Program Files (x86)\Microchip\xc8\v1.30\sources\common\awtoft.c estimated size: 37

Config.c
		_config_board  		CODE           	1C78	0000	35

Config.c estimated size: 35

C:\Program Files (x86)\Microchip\xc8\v1.30\sources\common\lltoft.c
		___lltoft      		CODE           	1D0E	0000	49

C:\Program Files (x86)\Microchip\xc8\v1.30\sources\common\lltoft.c estimated size: 49

C:\Program Files (x86)\Microchip\xc8\v1.30\sources\common\awmod.c
		___awmod       		CODE           	1E07	0000	79

C:\Program Files (x86)\Microchip\xc8\v1.30\sources\common\awmod.c estimated size: 79

C:\Program Files (x86)\Microchip\xc8\v1.30\sources\common\awdiv.c
		___awdiv       		CODE           	1E56	0000	93

C:\Program Files (x86)\Microchip\xc8\v1.30\sources\common\awdiv.c estimated size: 93

